{
  "transactions": [
    {
      "hash": "0xe461a871b989347903b6f23b9e9ca884b5cbe23114b4769bf087699b438679d5",
      "transactionType": "CALL",
      "contractName": null,
      "contractAddress": "0xc4858e4d177bf0d14571f91401492d62aa608047",
      "function": "setLevelThresholds(uint256[])",
      "arguments": [
        "[200000, 300000, 400000, 500000, 600000]"
      ],
      "transaction": {
        "from": "0x64337bc28d3236e4a5f2fbdd697f8ce8879621d5",
        "to": "0xc4858e4d177bf0d14571f91401492d62aa608047",
        "gas": "0x12fd6",
        "value": "0x0",
        "input": "0xbb2ae6bf000000000000000000000000000000000000000000000000000000000000002000000000000000000000000000000000000000000000000000000000000000050000000000000000000000000000000000000000000000000000000000030d4000000000000000000000000000000000000000000000000000000000000493e00000000000000000000000000000000000000000000000000000000000061a80000000000000000000000000000000000000000000000000000000000007a12000000000000000000000000000000000000000000000000000000000000927c0",
        "nonce": "0x1c",
        "chainId": "0x82750"
      },
      "additionalContracts": [],
      "isFixedGasLimit": false
    }
  ],
  "receipts": [
    {
      "status": "0x1",
      "cumulativeGasUsed": "0xcfc1",
      "logs": [],
      "logsBloom": "0x00000000000000000000000000000000000000000000000000000000000000000000000000000000000000000000000000000000000000000000000000000000000000000000000000000000000000000000000000000000000000000000000000000000000000000000000000000000000000000000000000000000000000000000000000000000000000000000000000000000000000000000000000000000000000000000000000000000000000000000000000000000000000000000000000000000000000000000000000000000000000000000000000000000000000000000000000000000000000000000000000000000000000000000000000000000",
      "type": "0x0",
      "transactionHash": "0xe461a871b989347903b6f23b9e9ca884b5cbe23114b4769bf087699b438679d5",
      "transactionIndex": "0x0",
      "blockHash": "0x2758ececd47f44edf653b8cab8de16617a867526a12f60c7fc278f6945fbb6af",
      "blockNumber": "0x691062",
      "gasUsed": "0xcfc1",
      "effectiveGasPrice": "0xdb58580",
      "from": "0x64337bc28d3236e4a5f2fbdd697f8ce8879621d5",
      "to": "0xc4858e4d177bf0d14571f91401492d62aa608047",
      "contractAddress": null,
      "l1Fee": "0xf7226eca0d"
    }
  ],
  "libraries": [],
  "pending": [],
  "returns": {},
  "timestamp": 1719360168,
  "chain": 534352,
  "commit": "2b498ef"
}