{
  "transactions": [
    {
      "hash": "0xcd1dd67420ed897eb837570a58af19cafe65a6959140513e15db9a627e1eaaec",
      "transactionType": "CREATE",
      "contractName": "PassportScoreScrollBadge",
      "contractAddress": "0xa623f348A12cFdC6B64a8c9e883dD9B243438E79",
      "function": null,
      "arguments": [
        "0x4560FECd62B14A463bE44D40fE5Cfd595eEc0113",
        "0x8A5820030188346cC9532a1dD9FD2EF8d8F464de"
      ],
      "transaction": {
        "type": "0x00",
        "from": "0x64337bc28d3236e4a5f2fbdd697f8ce8879621d5",
        "gas": "0x1f39ca",
        "value": "0x0",
        "data": "0x60a06040523480156200001157600080fd5b5060405162001be038038062001be08339810160408190526200003491620000da565b8162000040336200006d565b6001600160a01b03908116608052600380546001600160a01b031916929091169190911790555062000112565b600080546001600160a01b038381166001600160a01b0319831681178455604051919092169283917f8be0079c531659141344cd1fd0a4f28419497f9722a3daafe3b4186f6b6457e09190a35050565b80516001600160a01b0381168114620000d557600080fd5b919050565b60008060408385031215620000ee57600080fd5b620000f983620000bd565b91506200010960208401620000bd565b90509250929050565b608051611a9d62000143600039600081816101620152818161079b015281816109a70152610b620152611a9d6000f3fe608060405234801561001057600080fd5b50600436106101585760003560e01c80638298b030116100c3578063bc444e131161007c578063bc444e1314610346578063d753a63d14610359578063d84a4a5e1461036c578063f2fde38b1461037f578063f942ebd614610392578063ffa679b7146103a557600080fd5b80638298b030146102b95780638b2c41bc146102cc5780638c6f12f0146102df5780638da5cb5b146102ff578063b6ebe53914610310578063bb2ae6bf1461033357600080fd5b80632c01c7a4116101155780632c01c7a41461020f57806342faaa7e1461022257806343e839cf146102505780635c445412146102635780635e50864f14610276578063715018a6146102b157600080fd5b806304f3bcec1461015d5780630d713004146101a15780630ee48948146101c1578063114c05df146101d65780632149ee55146101e957806324830563146101fc575b600080fd5b6101847f000000000000000000000000000000000000000000000000000000000000000081565b6040516001600160a01b0390911681526020015b60405180910390f35b6101b46101af36600461113e565b6103b8565b60405161019891906111a7565b6101d46101cf3660046111dd565b610464565b005b6101d46101e43660046112cf565b610497565b600354610184906001600160a01b031681565b6101b461020a36600461113e565b6104b6565b6101d461021d3660046112cf565b610723565b61024261023036600461113e565b60086020526000908152604090205481565b604051908152602001610198565b6101d461025e3660046112cf565b61073e565b61024261027136600461113e565b610759565b6102a16102843660046113c3565b6001600160a01b0316600090815260016020526040902054151590565b6040519015158152602001610198565b6101d461077a565b6102a16102c73660046113e0565b61078e565b6102426102da3660046113c3565b61086a565b6102f26102ed36600461113e565b610938565b604051610198919061141b565b6000546001600160a01b0316610184565b6102a161031e3660046113c3565b60026020526000908152604090205460ff1681565b6101d46103413660046114ef565b610a63565b6101d461035436600461113e565b610a7e565b6102a16103673660046113e0565b610b55565b6101b461037a36600461113e565b610c31565b6101d461038d3660046113c3565b610c41565b6102a16103a036600461113e565b610cba565b6101b46103b336600461113e565b610cf1565b600681815481106103c857600080fd5b9060005260206000200160009150905080546103e39061157f565b80601f016020809104026020016040519081016040528092919081815260200182805461040f9061157f565b801561045c5780601f106104315761010080835404028352916020019161045c565b820191906000526020600020905b81548152906001019060200180831161043f57829003601f168201915b505050505081565b61046c610d01565b6001600160a01b03919091166000908152600260205260409020805460ff1916911515919091179055565b61049f610d01565b80516104b2906005906020840190611035565b5050565b600081815260086020526040812054600680546060939190839081106104de576104de6115b9565b9060005260206000200180546104f39061157f565b80601f016020809104026020016040519081016040528092919081815260200182805461051f9061157f565b801561056c5780601f106105415761010080835404028352916020019161056c565b820191906000526020600020905b81548152906001019060200180831161054f57829003601f168201915b50505050509050600060078381548110610588576105886115b9565b90600052602060002001805461059d9061157f565b80601f01602080910402602001604051908101604052809291908181526020018280546105c99061157f565b80156106165780601f106105eb57610100808354040283529160200191610616565b820191906000526020600020905b8154815290600101906020018083116105f957829003601f168201915b50505050509050600060058481548110610632576106326115b9565b9060005260206000200180546106479061157f565b80601f01602080910402602001604051908101604052809291908181526020018280546106739061157f565b80156106c05780601f10610695576101008083540402835291602001916106c0565b820191906000526020600020905b8154815290600101906020018083116106a357829003601f168201915b5050505050905060006106f58484846040516020016106e1939291906115cf565b604051602081830303815290604052610d5b565b9050806040516020016107089190611670565b60405160208183030381529060405295505050505050919050565b61072b610d01565b80516104b2906007906020840190611035565b610746610d01565b80516104b2906006906020840190611035565b6004818154811061076957600080fd5b600091825260209091200154905081565b610782610d01565b61078c6000610ead565b565b6000336001600160a01b037f000000000000000000000000000000000000000000000000000000000000000016146107d8576040516282b42960e81b815260040160405180910390fd5b6107e182610efd565b6107ed57506000919050565b600180600061080260e0860160c087016113c3565b6001600160a01b03166001600160a01b03168152602001908152602001600020600082825461083191906116cb565b90915550506040518235907f504e4727721de18c6bf7f66448a6ff6da00aa4b1f00b6034e71723ae7ce6373a90600090a2506001919050565b600354604051630d47875d60e41b81526001600160a01b038381166004830152600092839291169063d47875d090602401602060405180830381865afa1580156108b8573d6000803e3d6000fd5b505050506040513d601f19601f820116820180604052508101906108dc91906116de565b90506000805b60045481101561093057600481815481106108ff576108ff6115b9565b9060005260206000200154831061091e5761091b8160016116f7565b91505b806109288161170a565b9150506108e2565b509392505050565b604080516101408101825260008082526020820181905281830181905260608083018290526080830182905260a0830182905260c0830182905260e08301829052610100830182905261012083015291516308c6f12f60e41b8152600481018490529091906001600160a01b037f00000000000000000000000000000000000000000000000000000000000000001690638c6f12f090602401600060405180830381865afa1580156109ee573d6000803e3d6000fd5b505050506040513d6000823e601f3d908101601f19168201604052610a16919081019061179a565b90506000610a28826101200151610f0e565b5090506001600160a01b0381163014610a5c5760405163b923d26160e01b8152600481018590526024015b60405180910390fd5b5092915050565b610a6b610d01565b80516104b290600490602084019061108b565b6000610a8982610938565b90508060c001516001600160a01b0316336001600160a01b031614610ac0576040516282b42960e81b815260040160405180910390fd5b6000610acf8260c0015161086a565b600084815260086020526040902054909150808211610b0457604051634327880b60e11b815260048101859052602401610a53565b60008481526008602090815260409182902084905581518381529081018490527feb0ebb51128928d7b1a6419c52128a9319bfcb55f0adafea75afbf75f9f2f3e9910160405180910390a150505050565b6000336001600160a01b037f00000000000000000000000000000000000000000000000000000000000000001614610b9f576040516282b42960e81b815260040160405180910390fd5b610ba882610f2f565b610bb457506000919050565b6001806000610bc960e0860160c087016113c3565b6001600160a01b03166001600160a01b031681526020019081526020016000206000828254610bf891906116f7565b90915550506040518235907fa0785ec0b9bf31a5475d33c716fb9f500f0ea0bb9e4bc10ec39d5db763c1da1590600090a2506001919050565b600781815481106103c857600080fd5b610c49610d01565b6001600160a01b038116610cae5760405162461bcd60e51b815260206004820152602660248201527f4f776e61626c653a206e6577206f776e657220697320746865207a65726f206160448201526564647265737360d01b6064820152608401610a53565b610cb781610ead565b50565b600080610cc683610938565b90506000610cd78260c0015161086a565b600094855260086020526040909420549093119392505050565b600581815481106103c857600080fd5b6000546001600160a01b0316331461078c5760405162461bcd60e51b815260206004820181905260248201527f4f776e61626c653a2063616c6c6572206973206e6f7420746865206f776e65726044820152606401610a53565b60608151600003610d7a57505060408051602081019091526000815290565b6000604051806060016040528060408152602001611a286040913990506000600384516002610da991906116f7565b610db39190611890565b610dbe9060046118b2565b6001600160401b03811115610dd557610dd5611216565b6040519080825280601f01601f191660200182016040528015610dff576020820181803683370190505b509050600182016020820185865187015b80821015610e6b576003820191508151603f8160121c168501518453600184019350603f81600c1c168501518453600184019350603f8160061c168501518453600184019350603f8116850151845350600183019250610e10565b5050600386510660018114610e875760028114610e9a57610ea2565b603d6001830353603d6002830353610ea2565b603d60018303535b509195945050505050565b600080546001600160a01b038381166001600160a01b0319831681178455604051919092169283917f8be0079c531659141344cd1fd0a4f28419497f9722a3daafe3b4186f6b6457e09190a35050565b6000610f0882610f8a565b92915050565b6000606082806020019051810190610f2691906118c9565b91509150915091565b600080610f456102da60e0850160c086016113c3565b905080600003610f67576040516282b42960e81b815260040160405180910390fd5b82356000908152600860205260409020819055610f8383610f95565b9392505050565b6000610f0882610fe5565b6000610fa082610fe5565b610fac57506000919050565b610fbf61028460e0840160c085016113c3565b15610fdd57604051630c59311960e11b815260040160405180910390fd5b506001919050565b600060026000610ffc610100850160e086016113c3565b6001600160a01b0316815260208101919091526040016000205460ff16610fdd576040516282b42960e81b815260040160405180910390fd5b82805482825590600052602060002090810192821561107b579160200282015b8281111561107b578251829061106b9082611968565b5091602001919060010190611055565b506110879291506110d2565b5090565b8280548282559060005260206000209081019282156110c6579160200282015b828111156110c65782518255916020019190600101906110ab565b506110879291506110ef565b808211156110875760006110e68282611104565b506001016110d2565b5b8082111561108757600081556001016110f0565b5080546111109061157f565b6000825580601f10611120575050565b601f016020900490600052602060002090810190610cb791906110ef565b60006020828403121561115057600080fd5b5035919050565b60005b8381101561117257818101518382015260200161115a565b50506000910152565b60008151808452611193816020860160208601611157565b601f01601f19169290920160200192915050565b602081526000610f83602083018461117b565b6001600160a01b0381168114610cb757600080fd5b8015158114610cb757600080fd5b600080604083850312156111f057600080fd5b82356111fb816111ba565b9150602083013561120b816111cf565b809150509250929050565b634e487b7160e01b600052604160045260246000fd5b60405161014081016001600160401b038111828210171561124f5761124f611216565b60405290565b604051601f8201601f191681016001600160401b038111828210171561127d5761127d611216565b604052919050565b60006001600160401b0382111561129e5761129e611216565b5060051b60200190565b60006001600160401b038211156112c1576112c1611216565b50601f01601f191660200190565b600060208083850312156112e257600080fd5b82356001600160401b03808211156112f957600080fd5b818501915085601f83011261130d57600080fd5b813561132061131b82611285565b611255565b81815260059190911b8301840190848101908883111561133f57600080fd5b8585015b838110156113b65780358581111561135b5760008081fd5b8601603f81018b1361136d5760008081fd5b87810135604061137f61131b836112a8565b8281528d828486010111156113945760008081fd5b828285018c83013760009281018b019290925250845250918601918601611343565b5098975050505050505050565b6000602082840312156113d557600080fd5b8135610f83816111ba565b6000602082840312156113f257600080fd5b81356001600160401b0381111561140857600080fd5b82016101408185031215610f8357600080fd5b6020815281516020820152602082015160408201526000604083015161144c60608401826001600160401b03169052565b5060608301516001600160401b03811660808401525060808301516001600160401b03811660a08401525060a083015160c083015260c083015161149b60e08401826001600160a01b03169052565b5060e08301516101006114b8818501836001600160a01b03169052565b84015190506101206114cd8482018315159052565b8401516101408481015290506114e761016084018261117b565b949350505050565b6000602080838503121561150257600080fd5b82356001600160401b0381111561151857600080fd5b8301601f8101851361152957600080fd5b803561153761131b82611285565b81815260059190911b8201830190838101908783111561155657600080fd5b928401925b828410156115745783358252928401929084019061155b565b979650505050505050565b600181811c9082168061159357607f821691505b6020821081036115b357634e487b7160e01b600052602260045260246000fd5b50919050565b634e487b7160e01b600052603260045260246000fd5b683d913730b6b2911d1160b91b815283516000906115f4816009850160208901611157565b71111610113232b9b1b934b83a34b7b7111d1160711b600991840191820152845161162681601b840160208901611157565b6c1116101134b6b0b3b2911d101160991b601b92909101918201528351611654816028840160208801611157565b61227d60f01b60289290910191820152602a0195945050505050565b7f646174613a6170706c69636174696f6e2f6a736f6e3b6261736536342c0000008152600082516116a881601d850160208701611157565b91909101601d0192915050565b634e487b7160e01b600052601160045260246000fd5b81810381811115610f0857610f086116b5565b6000602082840312156116f057600080fd5b5051919050565b80820180821115610f0857610f086116b5565b60006001820161171c5761171c6116b5565b5060010190565b80516001600160401b038116811461173a57600080fd5b919050565b805161173a816111ba565b805161173a816111cf565b600082601f83011261176657600080fd5b815161177461131b826112a8565b81815284602083860101111561178957600080fd5b6114e7826020830160208701611157565b6000602082840312156117ac57600080fd5b81516001600160401b03808211156117c357600080fd5b9083019061014082860312156117d857600080fd5b6117e061122c565b82518152602083015160208201526117fa60408401611723565b604082015261180b60608401611723565b606082015261181c60808401611723565b608082015260a083015160a082015261183760c0840161173f565b60c082015261184860e0840161173f565b60e082015261010061185b81850161174a565b90820152610120838101518381111561187357600080fd5b61187f88828701611755565b918301919091525095945050505050565b6000826118ad57634e487b7160e01b600052601260045260246000fd5b500490565b8082028115828204841417610f0857610f086116b5565b600080604083850312156118dc57600080fd5b82516118e7816111ba565b60208401519092506001600160401b0381111561190357600080fd5b61190f85828601611755565b9150509250929050565b601f82111561196357600081815260208120601f850160051c810160208610156119405750805b601f850160051c820191505b8181101561195f5782815560010161194c565b5050505b505050565b81516001600160401b0381111561198157611981611216565b6119958161198f845461157f565b84611919565b602080601f8311600181146119ca57600084156119b25750858301515b600019600386901b1c1916600185901b17855561195f565b600085815260208120601f198616915b828110156119f9578886015182559484019460019091019084016119da565b5085821015611a175787850151600019600388901b60f8161c191681555b5050505050600190811b0190555056fe4142434445464748494a4b4c4d4e4f505152535455565758595a6162636465666768696a6b6c6d6e6f707172737475767778797a303132333435363738392b2fa2646970667358221220c6cd53582319cbc27735f3f52b01120dfa184ec184b0b43dd30fcc9d5d290f5664736f6c634300081300330000000000000000000000004560fecd62b14a463be44d40fe5cfd595eec01130000000000000000000000008a5820030188346cc9532a1dd9fd2ef8d8f464de",
        "nonce": "0x3a"
      },
      "additionalContracts": [],
      "isFixedGasLimit": false
    },
    {
      "hash": "0x2a2731204da3a298a6c34d6cd0c55da55389178e126f78745f24d0f0c46612fd",
      "transactionType": "CALL",
      "contractName": "PassportScoreScrollBadge",
      "contractAddress": "0xa623f348A12cFdC6B64a8c9e883dD9B243438E79",
      "function": "setLevelThresholds(uint256[])",
      "arguments": [
        "[200000, 300000, 400000, 500000, 600000]"
      ],
      "transaction": {
        "type": "0x00",
        "from": "0x64337bc28d3236e4a5f2fbdd697f8ce8879621d5",
        "to": "0xa623f348a12cfdc6b64a8c9e883dd9b243438e79",
        "gas": "0x3583e",
        "value": "0x0",
        "data": "0xbb2ae6bf000000000000000000000000000000000000000000000000000000000000002000000000000000000000000000000000000000000000000000000000000000050000000000000000000000000000000000000000000000000000000000030d4000000000000000000000000000000000000000000000000000000000000493e00000000000000000000000000000000000000000000000000000000000061a80000000000000000000000000000000000000000000000000000000000007a12000000000000000000000000000000000000000000000000000000000000927c0",
        "nonce": "0x3b"
      },
      "additionalContracts": [],
      "isFixedGasLimit": false
    },
    {
      "hash": "0xe8f16b9377f744aeb81b42bab152531915805c0b21584712b1874e46db1ef69a",
      "transactionType": "CALL",
      "contractName": "PassportScoreScrollBadge",
      "contractAddress": "0xa623f348A12cFdC6B64a8c9e883dD9B243438E79",
      "function": "setBadgeLevelImageURIs(string[])",
      "arguments": [
        "[\"https://raw.githubusercontent.com/gitcoinco/passport/93889216df77f83470b948f5c8b3f48c3b0492b4/app/public/scrollBadgeImages/60%2B.png\", \"https://raw.githubusercontent.com/gitcoinco/passport/93889216df77f83470b948f5c8b3f48c3b0492b4/app/public/scrollBadgeImages/20-29.png\", \"https://raw.githubusercontent.com/gitcoinco/passport/93889216df77f83470b948f5c8b3f48c3b0492b4/app/public/scrollBadgeImages/30-39.png\", \"https://raw.githubusercontent.com/gitcoinco/passport/93889216df77f83470b948f5c8b3f48c3b0492b4/app/public/scrollBadgeImages/40-49.png\", \"https://raw.githubusercontent.com/gitcoinco/passport/93889216df77f83470b948f5c8b3f48c3b0492b4/app/public/scrollBadgeImages/50-59.png\", \"https://raw.githubusercontent.com/gitcoinco/passport/93889216df77f83470b948f5c8b3f48c3b0492b4/app/public/scrollBadgeImages/60%2B.png\"]"
      ],
      "transaction": {
        "type": "0x00",
        "from": "0x64337bc28d3236e4a5f2fbdd697f8ce8879621d5",
        "to": "0xa623f348a12cfdc6b64a8c9e883dd9b243438e79",
        "gas": "0x1351c7",
        "value": "0x0",
        "data": "0x114c05df0000000000000000000000000000000000000000000000000000000000000020000000000000000000000000000000000000000000000000000000000000000600000000000000000000000000000000000000000000000000000000000000c000000000000000000000000000000000000000000000000000000000000001800000000000000000000000000000000000000000000000000000000000000240000000000000000000000000000000000000000000000000000000000000030000000000000000000000000000000000000000000000000000000000000003c00000000000000000000000000000000000000000000000000000000000000480000000000000000000000000000000000000000000000000000000000000008468747470733a2f2f7261772e67697468756275736572636f6e74656e742e636f6d2f676974636f696e636f2f70617373706f72742f393338383932313664663737663833343730623934386635633862336634386333623034393262342f6170702f7075626c69632f7363726f6c6c4261646765496d616765732f36302532422e706e6700000000000000000000000000000000000000000000000000000000000000000000000000000000000000000000000000000000000000000000008468747470733a2f2f7261772e67697468756275736572636f6e74656e742e636f6d2f676974636f696e636f2f70617373706f72742f393338383932313664663737663833343730623934386635633862336634386333623034393262342f6170702f7075626c69632f7363726f6c6c4261646765496d616765732f32302d32392e706e6700000000000000000000000000000000000000000000000000000000000000000000000000000000000000000000000000000000000000000000008468747470733a2f2f7261772e67697468756275736572636f6e74656e742e636f6d2f676974636f696e636f2f70617373706f72742f393338383932313664663737663833343730623934386635633862336634386333623034393262342f6170702f7075626c69632f7363726f6c6c4261646765496d616765732f33302d33392e706e6700000000000000000000000000000000000000000000000000000000000000000000000000000000000000000000000000000000000000000000008468747470733a2f2f7261772e67697468756275736572636f6e74656e742e636f6d2f676974636f696e636f2f70617373706f72742f393338383932313664663737663833343730623934386635633862336634386333623034393262342f6170702f7075626c69632f7363726f6c6c4261646765496d616765732f34302d34392e706e6700000000000000000000000000000000000000000000000000000000000000000000000000000000000000000000000000000000000000000000008468747470733a2f2f7261772e67697468756275736572636f6e74656e742e636f6d2f676974636f696e636f2f70617373706f72742f393338383932313664663737663833343730623934386635633862336634386333623034393262342f6170702f7075626c69632f7363726f6c6c4261646765496d616765732f35302d35392e706e6700000000000000000000000000000000000000000000000000000000000000000000000000000000000000000000000000000000000000000000008468747470733a2f2f7261772e67697468756275736572636f6e74656e742e636f6d2f676974636f696e636f2f70617373706f72742f393338383932313664663737663833343730623934386635633862336634386333623034393262342f6170702f7075626c69632f7363726f6c6c4261646765496d616765732f36302532422e706e6700000000000000000000000000000000000000000000000000000000",
        "nonce": "0x3c"
      },
      "additionalContracts": [],
      "isFixedGasLimit": false
    },
    {
      "hash": "0x9824eb53eee609db1185b28abda98aafa73daa19f9e0eea6a10ce6c54ac9ff80",
      "transactionType": "CALL",
      "contractName": "PassportScoreScrollBadge",
      "contractAddress": "0xa623f348A12cFdC6B64a8c9e883dD9B243438E79",
      "function": "setBadgeLevelDescriptions(string[])",
      "arguments": [
        "[\"This badge is for Scrollers who have a Passport score above 20, and have minted an onchain attestation to the Scroll network. Minting this badge informs everyone in the Scroll ecosystem that you're a real human!\", \"This badge is for Scrollers who have a Passport score above 20, and have minted an onchain attestation to the Scroll network. Minting this badge informs everyone in the Scroll ecosystem that you're a real human! Increase your onchain Humanity Score to upgrade your badge.\", \"This badge is for Scrollers who have a Passport score above 30, and have minted an onchain attestation to the Scroll network. Minting this badge informs everyone in the Scroll ecosystem that you're a real human! Increase your onchain Humanity Score to upgrade your badge.\", \"This badge is for Scrollers who have a Passport score above 40, and have minted an onchain attestation to the Scroll network. Minting this badge informs everyone in the Scroll ecosystem that you're a real human! Increase your onchain Humanity Score to upgrade your badge.\", \"This badge is for Scrollers who have a Passport score above 50, and have minted an onchain attestation to the Scroll network. Minting this badge informs everyone in the Scroll ecosystem that you're a real human! Increase your onchain Humanity Score to upgrade your badge.\", \"This badge is for Scrollers who have a Passport score above 60, and have minted an onchain attestation to the Scroll network. Minting this badge informs everyone in the Scroll ecosystem that you're a real human! This is the highest level badge.\"]"
      ],
      "transaction": {
        "type": "0x00",
        "from": "0x64337bc28d3236e4a5f2fbdd697f8ce8879621d5",
        "to": "0xa623f348a12cfdc6b64a8c9e883dd9b243438e79",
        "gas": "0x1c502b",
        "value": "0x0",
        "data": "0x2c01c7a40000000000000000000000000000000000000000000000000000000000000020000000000000000000000000000000000000000000000000000000000000000600000000000000000000000000000000000000000000000000000000000000c000000000000000000000000000000000000000000000000000000000000001c000000000000000000000000000000000000000000000000000000000000003000000000000000000000000000000000000000000000000000000000000000440000000000000000000000000000000000000000000000000000000000000058000000000000000000000000000000000000000000000000000000000000006c000000000000000000000000000000000000000000000000000000000000000d35468697320626164676520697320666f72205363726f6c6c6572732077686f206861766520612050617373706f72742073636f72652061626f76652032302c20616e642068617665206d696e74656420616e206f6e636861696e206174746573746174696f6e20746f20746865205363726f6c6c206e6574776f726b2e204d696e74696e67207468697320626164676520696e666f726d732065766572796f6e6520696e20746865205363726f6c6c2065636f73797374656d207468617420796f752772652061207265616c2068756d616e2100000000000000000000000000000000000000000000000000000000000000000000000000000000000000010f5468697320626164676520697320666f72205363726f6c6c6572732077686f206861766520612050617373706f72742073636f72652061626f76652032302c20616e642068617665206d696e74656420616e206f6e636861696e206174746573746174696f6e20746f20746865205363726f6c6c206e6574776f726b2e204d696e74696e67207468697320626164676520696e666f726d732065766572796f6e6520696e20746865205363726f6c6c2065636f73797374656d207468617420796f752772652061207265616c2068756d616e2120496e63726561736520796f7572206f6e636861696e2048756d616e6974792053636f726520746f207570677261646520796f75722062616467652e0000000000000000000000000000000000000000000000000000000000000000000000000000000000000000000000010f5468697320626164676520697320666f72205363726f6c6c6572732077686f206861766520612050617373706f72742073636f72652061626f76652033302c20616e642068617665206d696e74656420616e206f6e636861696e206174746573746174696f6e20746f20746865205363726f6c6c206e6574776f726b2e204d696e74696e67207468697320626164676520696e666f726d732065766572796f6e6520696e20746865205363726f6c6c2065636f73797374656d207468617420796f752772652061207265616c2068756d616e2120496e63726561736520796f7572206f6e636861696e2048756d616e6974792053636f726520746f207570677261646520796f75722062616467652e0000000000000000000000000000000000000000000000000000000000000000000000000000000000000000000000010f5468697320626164676520697320666f72205363726f6c6c6572732077686f206861766520612050617373706f72742073636f72652061626f76652034302c20616e642068617665206d696e74656420616e206f6e636861696e206174746573746174696f6e20746f20746865205363726f6c6c206e6574776f726b2e204d696e74696e67207468697320626164676520696e666f726d732065766572796f6e6520696e20746865205363726f6c6c2065636f73797374656d207468617420796f752772652061207265616c2068756d616e2120496e63726561736520796f7572206f6e636861696e2048756d616e6974792053636f726520746f207570677261646520796f75722062616467652e0000000000000000000000000000000000000000000000000000000000000000000000000000000000000000000000010f5468697320626164676520697320666f72205363726f6c6c6572732077686f206861766520612050617373706f72742073636f72652061626f76652035302c20616e642068617665206d696e74656420616e206f6e636861696e206174746573746174696f6e20746f20746865205363726f6c6c206e6574776f726b2e204d696e74696e67207468697320626164676520696e666f726d732065766572796f6e6520696e20746865205363726f6c6c2065636f73797374656d207468617420796f752772652061207265616c2068756d616e2120496e63726561736520796f7572206f6e636861696e2048756d616e6974792053636f726520746f207570677261646520796f75722062616467652e000000000000000000000000000000000000000000000000000000000000000000000000000000000000000000000000f45468697320626164676520697320666f72205363726f6c6c6572732077686f206861766520612050617373706f72742073636f72652061626f76652036302c20616e642068617665206d696e74656420616e206f6e636861696e206174746573746174696f6e20746f20746865205363726f6c6c206e6574776f726b2e204d696e74696e67207468697320626164676520696e666f726d732065766572796f6e6520696e20746865205363726f6c6c2065636f73797374656d207468617420796f752772652061207265616c2068756d616e212054686973206973207468652068696768657374206c6576656c2062616467652e000000000000000000000000",
        "nonce": "0x3d"
      },
      "additionalContracts": [],
      "isFixedGasLimit": false
    },
    {
      "hash": "0xe9113d6d28db619f53c18d278289b774e6aaa85424b26798bb10d6c604e10b90",
      "transactionType": "CALL",
      "contractName": "PassportScoreScrollBadge",
      "contractAddress": "0xa623f348A12cFdC6B64a8c9e883dD9B243438E79",
      "function": "setBadgeLevelNames(string[])",
      "arguments": [
        "[\"Unique Humanity Score\", \"Unique Humanity Score - Level 1\", \"Unique Humanity Score - Level 2\", \"Unique Humanity Score - Level 3\", \"Unique Humanity Score - Level 4\", \"Unique Humanity Score - Level 5\"]"
      ],
      "transaction": {
        "type": "0x00",
        "from": "0x64337bc28d3236e4a5f2fbdd697f8ce8879621d5",
        "to": "0xa623f348a12cfdc6b64a8c9e883dd9b243438e79",
        "gas": "0x3fe3c",
        "value": "0x0",
        "data": "0x43e839cf0000000000000000000000000000000000000000000000000000000000000020000000000000000000000000000000000000000000000000000000000000000600000000000000000000000000000000000000000000000000000000000000c000000000000000000000000000000000000000000000000000000000000001000000000000000000000000000000000000000000000000000000000000000140000000000000000000000000000000000000000000000000000000000000018000000000000000000000000000000000000000000000000000000000000001c000000000000000000000000000000000000000000000000000000000000002000000000000000000000000000000000000000000000000000000000000000015556e697175652048756d616e6974792053636f72650000000000000000000000000000000000000000000000000000000000000000000000000000000000001f556e697175652048756d616e6974792053636f7265202d204c6576656c203100000000000000000000000000000000000000000000000000000000000000001f556e697175652048756d616e6974792053636f7265202d204c6576656c203200000000000000000000000000000000000000000000000000000000000000001f556e697175652048756d616e6974792053636f7265202d204c6576656c203300000000000000000000000000000000000000000000000000000000000000001f556e697175652048756d616e6974792053636f7265202d204c6576656c203400000000000000000000000000000000000000000000000000000000000000001f556e697175652048756d616e6974792053636f7265202d204c6576656c203500",
        "nonce": "0x3e"
      },
      "additionalContracts": [],
      "isFixedGasLimit": false
    },
    {
      "hash": "0x2d4589c53e55eb6bfe25df1b3061157aace94de0bbe656cf0e79bbcf7d1008ce",
      "transactionType": "CALL",
      "contractName": "PassportScoreScrollBadge",
      "contractAddress": "0xa623f348A12cFdC6B64a8c9e883dD9B243438E79",
      "function": "toggleAttester(address,bool)",
      "arguments": [
        "0x39571bBD5a4c5d1a5184004c63F45FE426dB85Ea",
        "true"
      ],
      "transaction": {
        "type": "0x00",
        "from": "0x64337bc28d3236e4a5f2fbdd697f8ce8879621d5",
        "to": "0xa623f348a12cfdc6b64a8c9e883dd9b243438e79",
        "gas": "0x10921",
        "value": "0x0",
        "data": "0x0ee4894800000000000000000000000039571bbd5a4c5d1a5184004c63f45fe426db85ea0000000000000000000000000000000000000000000000000000000000000001",
        "nonce": "0x3f"
      },
      "additionalContracts": [],
      "isFixedGasLimit": false
    }
  ],
  "receipts": [],
  "libraries": [],
  "pending": [
    "0xcd1dd67420ed897eb837570a58af19cafe65a6959140513e15db9a627e1eaaec",
    "0x2a2731204da3a298a6c34d6cd0c55da55389178e126f78745f24d0f0c46612fd",
    "0xe8f16b9377f744aeb81b42bab152531915805c0b21584712b1874e46db1ef69a",
    "0x9824eb53eee609db1185b28abda98aafa73daa19f9e0eea6a10ce6c54ac9ff80",
    "0xe9113d6d28db619f53c18d278289b774e6aaa85424b26798bb10d6c604e10b90",
    "0x2d4589c53e55eb6bfe25df1b3061157aace94de0bbe656cf0e79bbcf7d1008ce"
  ],
  "returns": {},
  "timestamp": 1721000027,
  "chain": 534352,
  "multi": false,
  "commit": "1525bff"
}