{
  "transactions": [
    {
      "hash": "0x2ff257671ca0ef4545db69d3dd64a96bedf48f400702d4b63591c4fc00fd723b",
      "transactionType": "CALL",
      "contractName": null,
      "contractAddress": "0x1775f560c496d59be58a2929dd5143c8109012e1",
      "function": "setLevelThresholds(uint256[])",
      "arguments": [
        "[20, 30, 40, 50, 60]"
      ],
      "transaction": {
        "from": "0x64337bc28d3236e4a5f2fbdd697f8ce8879621d5",
        "to": "0x1775f560c496d59be58a2929dd5143c8109012e1",
        "gas": "0x3894a",
        "value": "0x0",
        "input": "0xbb2ae6bf000000000000000000000000000000000000000000000000000000000000002000000000000000000000000000000000000000000000000000000000000000050000000000000000000000000000000000000000000000000000000000000014000000000000000000000000000000000000000000000000000000000000001e00000000000000000000000000000000000000000000000000000000000000280000000000000000000000000000000000000000000000000000000000000032000000000000000000000000000000000000000000000000000000000000003c",
        "nonce": "0x17",
        "chainId": "0x82750"
      },
      "additionalContracts": [],
      "isFixedGasLimit": false
    },
    {
      "hash": "0x627ff59ea19d44cfd4d6e5b52a2b0016b5aee89a4e2813d438fd88accdc9122f",
      "transactionType": "CALL",
      "contractName": null,
      "contractAddress": "0x1775f560c496d59be58a2929dd5143c8109012e1",
      "function": "setBadgeLevelImageURIs(string[])",
      "arguments": [
        "[\"https://github.com/gitcoinco/passport/blob/93889216df77f83470b948f5c8b3f48c3b0492b4/app/public/scrollBadgeImages/60%2B.png\", \"https://github.com/gitcoinco/passport/blob/93889216df77f83470b948f5c8b3f48c3b0492b4/app/public/scrollBadgeImages/20-29.png\", \"https://github.com/gitcoinco/passport/blob/93889216df77f83470b948f5c8b3f48c3b0492b4/app/public/scrollBadgeImages/30-39.png\", \"https://github.com/gitcoinco/passport/blob/93889216df77f83470b948f5c8b3f48c3b0492b4/app/public/scrollBadgeImages/40-49.png\", \"https://github.com/gitcoinco/passport/blob/93889216df77f83470b948f5c8b3f48c3b0492b4/app/public/scrollBadgeImages/50-59.png\", \"https://github.com/gitcoinco/passport/blob/93889216df77f83470b948f5c8b3f48c3b0492b4/app/public/scrollBadgeImages/60%2B.png\"]"
      ],
      "transaction": {
        "from": "0x64337bc28d3236e4a5f2fbdd697f8ce8879621d5",
        "to": "0x1775f560c496d59be58a2929dd5143c8109012e1",
        "gas": "0xf685a",
        "value": "0x0",
        "input": "0x114c05df0000000000000000000000000000000000000000000000000000000000000020000000000000000000000000000000000000000000000000000000000000000600000000000000000000000000000000000000000000000000000000000000c00000000000000000000000000000000000000000000000000000000000000160000000000000000000000000000000000000000000000000000000000000020000000000000000000000000000000000000000000000000000000000000002a0000000000000000000000000000000000000000000000000000000000000034000000000000000000000000000000000000000000000000000000000000003e0000000000000000000000000000000000000000000000000000000000000007a68747470733a2f2f6769746875622e636f6d2f676974636f696e636f2f70617373706f72742f626c6f622f393338383932313664663737663833343730623934386635633862336634386333623034393262342f6170702f7075626c69632f7363726f6c6c4261646765496d616765732f36302532422e706e67000000000000000000000000000000000000000000000000000000000000000000000000007a68747470733a2f2f6769746875622e636f6d2f676974636f696e636f2f70617373706f72742f626c6f622f393338383932313664663737663833343730623934386635633862336634386333623034393262342f6170702f7075626c69632f7363726f6c6c4261646765496d616765732f32302d32392e706e67000000000000000000000000000000000000000000000000000000000000000000000000007a68747470733a2f2f6769746875622e636f6d2f676974636f696e636f2f70617373706f72742f626c6f622f393338383932313664663737663833343730623934386635633862336634386333623034393262342f6170702f7075626c69632f7363726f6c6c4261646765496d616765732f33302d33392e706e67000000000000000000000000000000000000000000000000000000000000000000000000007a68747470733a2f2f6769746875622e636f6d2f676974636f696e636f2f70617373706f72742f626c6f622f393338383932313664663737663833343730623934386635633862336634386333623034393262342f6170702f7075626c69632f7363726f6c6c4261646765496d616765732f34302d34392e706e67000000000000000000000000000000000000000000000000000000000000000000000000007a68747470733a2f2f6769746875622e636f6d2f676974636f696e636f2f70617373706f72742f626c6f622f393338383932313664663737663833343730623934386635633862336634386333623034393262342f6170702f7075626c69632f7363726f6c6c4261646765496d616765732f35302d35392e706e67000000000000000000000000000000000000000000000000000000000000000000000000007a68747470733a2f2f6769746875622e636f6d2f676974636f696e636f2f70617373706f72742f626c6f622f393338383932313664663737663833343730623934386635633862336634386333623034393262342f6170702f7075626c69632f7363726f6c6c4261646765496d616765732f36302532422e706e67000000000000",
        "nonce": "0x18",
        "chainId": "0x82750"
      },
      "additionalContracts": [],
      "isFixedGasLimit": false
    }
  ],
  "receipts": [
    {
      "status": "0x1",
      "cumulativeGasUsed": "0x26b01",
      "logs": [],
      "logsBloom": "0x00000000000000000000000000000000000000000000000000000000000000000000000000000000000000000000000000000000000000000000000000000000000000000000000000000000000000000000000000000000000000000000000000000000000000000000000000000000000000000000000000000000000000000000000000000000000000000000000000000000000000000000000000000000000000000000000000000000000000000000000000000000000000000000000000000000000000000000000000000000000000000000000000000000000000000000000000000000000000000000000000000000000000000000000000000000",
      "type": "0x0",
      "transactionHash": "0x2ff257671ca0ef4545db69d3dd64a96bedf48f400702d4b63591c4fc00fd723b",
      "transactionIndex": "0x0",
      "blockHash": "0x0839cf05df9167bec719ec0551b794df1fc0d5044a18b78353709806235bb176",
      "blockNumber": "0x6900d2",
      "gasUsed": "0x26b01",
      "effectiveGasPrice": "0xdb58580",
      "from": "0x64337bc28d3236e4a5f2fbdd697f8ce8879621d5",
      "to": "0x1775f560c496d59be58a2929dd5143c8109012e1",
      "contractAddress": null,
      "l1Fee": "0x1e0dbade73d"
    },
    {
      "status": "0x1",
      "cumulativeGasUsed": "0xee9bd",
      "logs": [],
      "logsBloom": "0x00000000000000000000000000000000000000000000000000000000000000000000000000000000000000000000000000000000000000000000000000000000000000000000000000000000000000000000000000000000000000000000000000000000000000000000000000000000000000000000000000000000000000000000000000000000000000000000000000000000000000000000000000000000000000000000000000000000000000000000000000000000000000000000000000000000000000000000000000000000000000000000000000000000000000000000000000000000000000000000000000000000000000000000000000000000",
      "type": "0x0",
      "transactionHash": "0x627ff59ea19d44cfd4d6e5b52a2b0016b5aee89a4e2813d438fd88accdc9122f",
      "transactionIndex": "0x2",
      "blockHash": "0x0839cf05df9167bec719ec0551b794df1fc0d5044a18b78353709806235bb176",
      "blockNumber": "0x6900d2",
      "gasUsed": "0xb27a4",
      "effectiveGasPrice": "0xdb58580",
      "from": "0x64337bc28d3236e4a5f2fbdd697f8ce8879621d5",
      "to": "0x1775f560c496d59be58a2929dd5143c8109012e1",
      "contractAddress": null,
      "l1Fee": "0xa58bfcc3a1e"
    }
  ],
  "libraries": [],
  "pending": [],
  "returns": {},
  "timestamp": 1719348217,
  "chain": 534352,
  "commit": "6645764"
}