{
  "transactions": [
    {
      "hash": "0xb22dd9e93d60833f53c16103abc932f9e8bba3d9929fa65e5d45b1e630925887",
      "transactionType": "CALL",
      "contractName": null,
      "contractAddress": "0x838b1dd570d8d69c21ae16fd865ce5d279760ba8",
      "function": "setLevelThresholds(uint256[])",
      "arguments": [
        "[200000, 300000, 400000, 500000, 600000]"
      ],
      "transaction": {
        "from": "0x64337bc28d3236e4a5f2fbdd697f8ce8879621d5",
        "to": "0x838b1dd570d8d69c21ae16fd865ce5d279760ba8",
        "gas": "0x12fd6",
        "value": "0x0",
        "input": "0xbb2ae6bf000000000000000000000000000000000000000000000000000000000000002000000000000000000000000000000000000000000000000000000000000000050000000000000000000000000000000000000000000000000000000000030d4000000000000000000000000000000000000000000000000000000000000493e00000000000000000000000000000000000000000000000000000000000061a80000000000000000000000000000000000000000000000000000000000007a12000000000000000000000000000000000000000000000000000000000000927c0",
        "nonce": "0x14",
        "chainId": "0x8274f"
      },
      "additionalContracts": [],
      "isFixedGasLimit": false
    }
  ],
  "receipts": [
    {
      "status": "0x1",
      "cumulativeGasUsed": "0xcfc1",
      "logs": [],
      "logsBloom": "0x00000000000000000000000000000000000000000000000000000000000000000000000000000000000000000000000000000000000000000000000000000000000000000000000000000000000000000000000000000000000000000000000000000000000000000000000000000000000000000000000000000000000000000000000000000000000000000000000000000000000000000000000000000000000000000000000000000000000000000000000000000000000000000000000000000000000000000000000000000000000000000000000000000000000000000000000000000000000000000000000000000000000000000000000000000000",
      "type": "0x0",
      "transactionHash": "0xb22dd9e93d60833f53c16103abc932f9e8bba3d9929fa65e5d45b1e630925887",
      "transactionIndex": "0x0",
      "blockHash": "0x22c86725e3d1145087e3f44005cc84b689f411fa8123d17e7da5eb1c26f6ded4",
      "blockNumber": "0x4bc3a0",
      "gasUsed": "0xcfc1",
      "effectiveGasPrice": "0xa381da38",
      "from": "0x64337bc28d3236e4a5f2fbdd697f8ce8879621d5",
      "to": "0x838b1dd570d8d69c21ae16fd865ce5d279760ba8",
      "contractAddress": null,
      "l1Fee": "0x15d9444e87c"
    }
  ],
  "libraries": [],
  "pending": [],
  "returns": {},
  "timestamp": 1719360196,
  "chain": 534351,
  "commit": "2b498ef"
}